:1000000045C060C05EC05DC05CC05BC05AC059C026
:1000100058C057C056C0C9C0EEC053C052C051C02E
:1000200050C04FC04EC076C16BC158C153C184C1CE
:1000300087C199C1A3C100000100020003000400B0
:10004000050006000700080009000A000C000D006A
:100050000F001200140017001A001E0023002800D1
:100060002E0034003C0045004F005A006700760027
:1000700088009C00B200CC00EA000D01340161014F
:100080009401D00113026102BA02200311241FBEA1
:10009000CFE5D4E0DEBFCDBF10E0A0E6B0E0ECEFEE
:1000A000F7E002C005900D92A036B107D9F711E034
:1000B000A0E6B0E001C01D92A136B107E1F718D06B
:1000C0009BC39ECF1F920F920FB60F9211248F9356
:1000D0009F938EB591E089278EBD80E790E09DBD0E
:1000E0008CBD9F918F910F900FBE0F901F90189510
:1000F0008F929F92AF92BF92CF92DF92EF92FF9238
:100100000F931F93DF93CF93CDB7DEB7CE5CD04074
:100110000FB6F894DEBF0FBECDBF9CD0A4D08FEC3D
:1001200090E034D0789401E010E028EC822E912CFD
:1001300098E6E92EF12CEC0EFD1E5E010894A11C40
:10014000B11C83E0C82ED12CCC0EDD1E01C001E015
:1001500084EC99E0F4013197F1F70197D9F7C701E1
:1001600013D3D501F70187E601900D928150E1F795
:10017000C6016A816FD216D1002329F01F5F1A329F
:1001800030F300E0E5CF115011F3E2CF90BD89B913
:1001900088E98AB986E880BD08955D9BFECF8CB959
:1001A00008955F9BFECF8CB108951F920F920FB6FA
:1001B0000F9211242F933F934F935F936F937F93ED
:1001C0008F939F93AF93BF93EF93FF936CB18CEF9B
:1001D00040E070D0FF91EF91BF91AF919F918F91CF
:1001E0007F916F915F914F913F912F910F900FBE33
:1001F0000F901F9018951F920F920FB60F92112417
:100200002F933F934F935F936F937F938F939F931E
:10021000AF93BF93EF93FF93909161008091600043
:10022000981731F081E060E040E044D08CB901C023
:100230005598FF91EF91BF91AF919F918F917F91D1
:100240006F915F914F913F912F910F900FBE0F9043
:100250001F90189585B7816085BF8BB780648BBF71
:10026000B99A899A08958FB5826C8FBD8EB58861D1
:100270008EBD8DED90E097BD86BD86B597B5969500
:1002800087959BBD8ABD8EB581608EBD08950FC0D8
:1002900067FF07C06F5F882311F4842F08C0815067
:1002A00006C06150841711F480E001C08F5F66239F
:1002B00079F708951F93162F992787FD9095A92FF9
:1002C000B92FFC013496E830F10508F068C0ED5E06
:1002D000FF4F099480916200642F0BC080916200EF
:1002E0004F5F642F44E6D3DF809362008091620009
:1002F0006FEF44E6CCDFE82FF0E0E350FF4F31C072
:1003000080916300642F44E6C2DFE82FF0E0E35001
:10031000FF4F32C080916300642F44E6B8DFE82FBE
:10032000F0E0E350FF4F10838091630061E044E60A
:10033000AEDF8093630033C080916000642F0BC0F8
:10034000809160004F5F642F42E3A1DF80936000E3
:10035000809160006FEF42E39ADFE82FF0E0E55311
:10036000FF4F80811DC080916100642F42E38FDFC9
:10037000E82FF0E0E553FF4F108311C0809161003A
:10038000642F42E384DFE82FF0E0E553FF4F108352
:100390008091610061E042E37ADF8093610080E058
:1003A0001F9108959091610080916000981719F055
:1003B000559AF89478940895EF92FF920F931F93B3
:1003C000CF93DF93F82EE92E109164000091650021
:1003D000C0EDD7E060C01230F9F0133030F41123D3
:1003E00051F0113009F057C008C0133031F114300A
:1003F00009F051C035C011E000E08EEF60E040E050
:1004000059DFE02FF0E0EC59FF4F82838E3709F07F
:1004100042C00F5F12E03FC08EEF60E040E04ADF75
:10042000E02FF0E0EC59FF4F82838D57823018F4B3
:1004300010E000E030C00F5F11C08EEF60E040E0E0
:1004400039DFE02FF0E0EC59FF4F8283E02FEF5FC0
:100450008E3719F40E2F14E01EC00E2F13E01BC0B0
:1004600010E09091620080916300981769F08FEF1F
:1004700060E040E01FDF8D3769F08FEF60E040E023
:1004800019DF8E3721F406C0CE010197F1F71F5F07
:10049000153039F715E0909162008091630098174C
:1004A00009F099CF133049F210936400009365006E
:1004B0008F2D9E2D9C01D901E4E6F0E087E60190A6
:1004C0000D928150E1F78F2D9E2DDF91CF911F91DD
:1004D0000F91FF90EF900895FC014FEF5FEF1AC06E
:1004E00081918527282F22952F70282730E0542FBF
:1004F000442742275327C901982F88279295907F38
:100500004827592785E0220F331F8A95E1F74227B4
:1005100053276150662321F7CA0108952F923F9215
:10052000982FD10112968C911297ED91FC91119711
:10053000E80FF11D908312968C9112978F5F12969F
:100540008C931297662381F09D57923068F4ED9159
:10055000FC911197E80FF11D8DE7808312968C9125
:1005600012978F5F12968C933F902F9008952F9241
:100570003F92CF92DF92EF92FF920F931F93DF9300
:10058000CF93CDB7DEB7C350D1400FB6F894DEBFDE
:100590000FBECDBFAC017B019A8389831B8220E013
:1005A000BE016C5F7F4F0AC0E22FF0E0DB01AE0FAF
:1005B000BF1FE40FF51F80818C932F5FF7018081AF
:1005C000281790F38E010F5F1F4F18018EE760E030
:1005D000A5DF90E0B4E0CB2ED12CCC0EDD1E12C0F6
:1005E000F601E90FF11D1801808161E0CD5FDE4F5A
:1005F0009883C350D14092DFCD5FDE4F9881C350C6
:10060000D1409F5FF7016081961750F3C60164DF08
:100610001801892F61E082DFC601F70160815CDF8C
:1006200061E07CDF8EE760E079DF8B81F70180831A
:10063000CD5FDE4F0FB6F894DEBF0FBECDBFCF91BA
:10064000DF911F910F91FF90EF90DF90CF903F903F
:100650002F9008950F931F93DF93CF93CDB7DEB7FD
:10066000E4970FB6F894DEBF0FBECDBF482F6BAB3B
:10067000562FDE011196242F392FC901FC0102C02B
:1006800081918D938E2F841B8517D0F38E010F5F80
:100690001F4FC801BE016D5C7F4F69DF90E00AC04B
:1006A000F801E90FF11D83E0608140E09CAB02DEC0
:1006B0009CA99F5F8BA9981798F3E4960FB6F894BE
:1006C000DEBF0FBECDBFCF91DF911F910F91089577
:1006D000CF92DF92EF92FF920F931F93DF93CF930E
:1006E000CDB7DEB7C050D1400FB6F894DEBF0FBE15
:1006F000CDBF8C01AB01FB016081DC0190E09E016C
:100700002F5F3F4F06C0F901E90FF11D8D918083E6
:100710009F5F9617C0F360E021E07E010894E11C22
:10072000F11C17C0CE0CDF1CF6019081AE0DBF1D71
:100730003C91892F8D57823010F02F5F05C03D37D7
:1007400011F090E001C02E5FF801E60FF11D9083DB
:100750006F5FC22EDD24D6011196FA01808190E0F0
:10076000A817B907FCF26083C050DF4F0FB6F894AA
:10077000DEBF0FBECDBFCF91DF911F910F91FF90D4
:10078000EF90DF90CF900895EF92FF920F931F9319
:10079000DF93CF93CDB7DEB7C756D0400FB6F894EE
:1007A000DEBF0FBECDBFF82EE92E8E010F5F1F4FAB
:1007B000C80102DECE010396BE016E5F7F4F88DF67
:1007C00086E089832F2D3E2DC901DC01F80187E6E3
:1007D00001900D928150E1F78F2D9E2DC959DF4F69
:1007E0000FB6F894DEBF0FBECDBFCF91DF911F9142
:0C07F0000F91FF90EF900895F894FFCF58
:00000001FF
